:1000000071C000008EC000008CC000008AC00000DB
:1000100088C0000086C0000084C0000082C00000CC
:100020000CC100007EC000007CC000007AC000004F
:1000300078C0000076C0000074C0000072C00000EC
:1000400070C000006EC000006CC000006AC00000FC
:1000500068C0000066C0000064C00000A4C00000CA
:1000600060C000005EC000005CC000005AC000001C
:1000700058C0000056C0000054C0000052C000002C
:1000800050C000004EC000004CC000004AC000003C
:1000900048C0000046C0000044C0000042C000004C
:1000A00040C000003EC000003CC000003AC000005C
:1000B00038C0000036C0000034C0000032C000006C
:1000C00030C000002EC000002CC000002AC000007C
:1000D00028C0000026C0000024C0000022C000008C
:1000E00020C0000011241FBECFEFD1E2DEBFCDBF84
:1000F00000E00CBF12E0A0E0B2E0E0EBF2E000E0D4
:100100000BBF02C007900D92A233B107D9F722E0CE
:10011000A2E3B2E001C01D92A633B207E1F7C1D05D
:10012000C5C06ECF8FEF81B988B18F7A88B987B19A
:10013000806587B9469828E322B9449A44989CE0A0
:1001400092B9449A449881E082B9449A4498EFE382
:10015000FFE13197F1F700C0000022B9449A4498BA
:10016000EFE3FFE13197F1F700C0000092B9449A44
:100170004498EFE3FFE13197F1F700C0000082B946
:10018000449A44988FE39FE10197F1F700C0000083
:10019000089585B5856085BD16BCEEE6F0E08081EA
:1001A0008160808308951F920F920FB60F921124E1
:1001B0000BB60F922F938F939F93EF93FF93209102
:1001C00035022031F9F446988091200282B91092CC
:1001D00035029091200280E498279093200280912C
:1001E0003402822780933402449A4498FF91EF911D
:1001F0009F918F912F910F900BBE0F900FBE0F907C
:100200001F901895469A809134022091350290E013
:1002100080509E4F820F911DFC01808182B9449ACB
:10022000809135028F5F80933502DECFEAE6F0E001
:100230008081806C8083EF9A08951F920F920FB691
:100240000F9211240BB60F922F938F939F93EF93DE
:10025000FF93E091330291E09E0F90933302EF7091
:10026000F0E0EF5DFD4F808180931F0280913202AC
:10027000E82FEF70F0E0EF5DFD4F208120931E022C
:100280009F7019F48F5F80933202FF91EF919F91DD
:100290008F912F910F900BBE0F900FBE0F901F905C
:1002A000189540DF76DFC2DF7894FFCFF894FFCF58
:1002B000454533303820426F6172642076332E30EA
:1002C000436F756E74202D2D2D2D2D2D2D3E20303C
:1002D000C030313233343536373839414243444502
:0202E0004600D6
:00000001FF
